{
  "contractName": "Fundraise",
  "abi": [
    {
      "constant": true,
      "inputs": [],
      "name": "fundraiserOwner",
      "outputs": [
        {
          "name": "",
          "type": "address"
        }
      ],
      "payable": false,
      "stateMutability": "view",
      "type": "function"
    },
    {
      "constant": true,
      "inputs": [
        {
          "name": "",
          "type": "address"
        }
      ],
      "name": "balances",
      "outputs": [
        {
          "name": "",
          "type": "uint256"
        }
      ],
      "payable": false,
      "stateMutability": "view",
      "type": "function"
    },
    {
      "constant": true,
      "inputs": [],
      "name": "deadline",
      "outputs": [
        {
          "name": "",
          "type": "uint256"
        }
      ],
      "payable": false,
      "stateMutability": "view",
      "type": "function"
    },
    {
      "constant": true,
      "inputs": [],
      "name": "fundraiserOpen",
      "outputs": [
        {
          "name": "",
          "type": "bool"
        }
      ],
      "payable": false,
      "stateMutability": "view",
      "type": "function"
    },
    {
      "constant": true,
      "inputs": [],
      "name": "tokenPriceInWei",
      "outputs": [
        {
          "name": "",
          "type": "uint256"
        }
      ],
      "payable": false,
      "stateMutability": "view",
      "type": "function"
    },
    {
      "constant": true,
      "inputs": [],
      "name": "targetReached",
      "outputs": [
        {
          "name": "",
          "type": "bool"
        }
      ],
      "payable": false,
      "stateMutability": "view",
      "type": "function"
    },
    {
      "constant": true,
      "inputs": [],
      "name": "fundraiserBeneficiary",
      "outputs": [
        {
          "name": "",
          "type": "address"
        }
      ],
      "payable": false,
      "stateMutability": "view",
      "type": "function"
    },
    {
      "constant": true,
      "inputs": [],
      "name": "fundraiserCommenced",
      "outputs": [
        {
          "name": "",
          "type": "bool"
        }
      ],
      "payable": false,
      "stateMutability": "view",
      "type": "function"
    },
    {
      "constant": true,
      "inputs": [],
      "name": "currentRaisedAmountInWei",
      "outputs": [
        {
          "name": "",
          "type": "uint256"
        }
      ],
      "payable": false,
      "stateMutability": "view",
      "type": "function"
    },
    {
      "constant": true,
      "inputs": [],
      "name": "tokenToBeUsedAsReward",
      "outputs": [
        {
          "name": "",
          "type": "address"
        }
      ],
      "payable": false,
      "stateMutability": "view",
      "type": "function"
    },
    {
      "constant": true,
      "inputs": [],
      "name": "minimumTargetInWei",
      "outputs": [
        {
          "name": "",
          "type": "uint256"
        }
      ],
      "payable": false,
      "stateMutability": "view",
      "type": "function"
    },
    {
      "inputs": [],
      "payable": false,
      "stateMutability": "nonpayable",
      "type": "constructor"
    },
    {
      "constant": false,
      "inputs": [
        {
          "name": "_timeOpenInMinutes",
          "type": "uint256"
        },
        {
          "name": "_minimumTargetEth",
          "type": "uint256"
        },
        {
          "name": "_campaignToken",
          "type": "address"
        },
        {
          "name": "_tokenPriceEth",
          "type": "uint256"
        },
        {
          "name": "_fundraiseBeneficiary",
          "type": "address"
        }
      ],
      "name": "launchCampaign",
      "outputs": [],
      "payable": false,
      "stateMutability": "nonpayable",
      "type": "function"
    },
    {
      "constant": false,
      "inputs": [],
      "name": "checkCampaignStatus",
      "outputs": [],
      "payable": false,
      "stateMutability": "nonpayable",
      "type": "function"
    },
    {
      "constant": false,
      "inputs": [],
      "name": "contributeToCampaign",
      "outputs": [],
      "payable": true,
      "stateMutability": "payable",
      "type": "function"
    },
    {
      "constant": false,
      "inputs": [],
      "name": "withdraw",
      "outputs": [],
      "payable": true,
      "stateMutability": "payable",
      "type": "function"
    }
  ],
  "bytecode": "0x608060405260008060006101000a81548160ff02191690831515021790555060008060016101000a81548160ff0219169083151502179055506000600360006101000a81548160ff021916908315150217905550600060045534801561006457600080fd5b5033600860006101000a81548173ffffffffffffffffffffffffffffffffffffffff021916908373ffffffffffffffffffffffffffffffffffffffff160217905550610bcf806100b56000396000f3006080604052600436106100db576000357c0100000000000000000000000000000000000000000000000000000000900463ffffffff16806316fcd5cf146100e057806318ded2bf146100ea57806327e235e31461014157806329dcb0cf146101985780632f226553146101c35780632f8de810146101f25780633bde5ba81461021d5780633ccfd60b1461024c5780634c7f7adb146102565780636730475c1461026d57806371f86fc9146102ee5780638d23525a1461034557806397406e6b14610374578063a734fb731461039f578063d9b28ba4146103f6575b600080fd5b6100e8610421565b005b3480156100f657600080fd5b506100ff6105b0565b604051808273ffffffffffffffffffffffffffffffffffffffff1673ffffffffffffffffffffffffffffffffffffffff16815260200191505060405180910390f35b34801561014d57600080fd5b50610182600480360381019080803573ffffffffffffffffffffffffffffffffffffffff1690602001909291905050506105d6565b6040518082815260200191505060405180910390f35b3480156101a457600080fd5b506101ad6105ee565b6040518082815260200191505060405180910390f35b3480156101cf57600080fd5b506101d86105f4565b604051808215151515815260200191505060405180910390f35b3480156101fe57600080fd5b50610207610607565b6040518082815260200191505060405180910390f35b34801561022957600080fd5b5061023261060d565b604051808215151515815260200191505060405180910390f35b610254610620565b005b34801561026257600080fd5b5061026b610949565b005b34801561027957600080fd5b506102ec6004803603810190808035906020019092919080359060200190929190803573ffffffffffffffffffffffffffffffffffffffff16906020019092919080359060200190929190803573ffffffffffffffffffffffffffffffffffffffff1690602001909291905050506109bb565b005b3480156102fa57600080fd5b50610303610b39565b604051808273ffffffffffffffffffffffffffffffffffffffff1673ffffffffffffffffffffffffffffffffffffffff16815260200191505060405180910390f35b34801561035157600080fd5b5061035a610b5f565b604051808215151515815260200191505060405180910390f35b34801561038057600080fd5b50610389610b71565b6040518082815260200191505060405180910390f35b3480156103ab57600080fd5b506103b4610b77565b604051808273ffffffffffffffffffffffffffffffffffffffff1673ffffffffffffffffffffffffffffffffffffffff16815260200191505060405180910390f35b34801561040257600080fd5b5061040b610b9d565b6040518082815260200191505060405180910390f35b600060011515600060019054906101000a900460ff1615151480156104585750600115156000809054906101000a900460ff161515145b151561046357600080fd5b34905080600960003373ffffffffffffffffffffffffffffffffffffffff1673ffffffffffffffffffffffffffffffffffffffff1681526020019081526020016000206000828254019250508190555080600460008282540192505081905550600560009054906101000a900473ffffffffffffffffffffffffffffffffffffffff1673ffffffffffffffffffffffffffffffffffffffff1663a9059cbb336006548481151561050f57fe5b046040518363ffffffff167c0100000000000000000000000000000000000000000000000000000000028152600401808373ffffffffffffffffffffffffffffffffffffffff1673ffffffffffffffffffffffffffffffffffffffff16815260200182815260200192505050600060405180830381600087803b15801561059557600080fd5b505af11580156105a9573d6000803e3d6000fd5b5050505050565b600860009054906101000a900473ffffffffffffffffffffffffffffffffffffffff1681565b60096020528060005260406000206000915090505481565b60015481565b600060019054906101000a900460ff1681565b60065481565b600360009054906101000a900460ff1681565b6000801515600060019054906101000a900460ff1615151480156106565750600115156000809054906101000a900460ff161515145b151561066157600080fd5b60001515600360009054906101000a900460ff161515141561085057600960003373ffffffffffffffffffffffffffffffffffffffff1673ffffffffffffffffffffffffffffffffffffffff1681526020019081526020016000205490506000600960003373ffffffffffffffffffffffffffffffffffffffff1673ffffffffffffffffffffffffffffffffffffffff168152602001908152602001600020819055503373ffffffffffffffffffffffffffffffffffffffff166108fc829081150290604051600060405180830381858888f193505050501561084b57600560009054906101000a900473ffffffffffffffffffffffffffffffffffffffff1673ffffffffffffffffffffffffffffffffffffffff1663a9059cbb600860009054906101000a900473ffffffffffffffffffffffffffffffffffffffff16600654848115156107ac57fe5b046040518363ffffffff167c0100000000000000000000000000000000000000000000000000000000028152600401808373ffffffffffffffffffffffffffffffffffffffff1673ffffffffffffffffffffffffffffffffffffffff16815260200182815260200192505050600060405180830381600087803b15801561083257600080fd5b505af1158015610846573d6000803e3d6000fd5b505050505b610946565b60011515600360009054906101000a900460ff1615151480156108c057503373ffffffffffffffffffffffffffffffffffffffff16600760009054906101000a900473ffffffffffffffffffffffffffffffffffffffff1673ffffffffffffffffffffffffffffffffffffffff16145b1561094557600760009054906101000a900473ffffffffffffffffffffffffffffffffffffffff1673ffffffffffffffffffffffffffffffffffffffff166108fc6004549081150290604051600060405180830381858888f193505050501561092857610944565b6000600360006101000a81548160ff0219169083151502179055505b5b5b50565b600115156000809054906101000a900460ff16151514151561096a57600080fd5b600154421015156109905760008060016101000a81548160ff0219169083151502179055505b6004546004541015156109b9576001600360006101000a81548160ff0219169083151502179055505b565b600860009054906101000a900473ffffffffffffffffffffffffffffffffffffffff1673ffffffffffffffffffffffffffffffffffffffff163373ffffffffffffffffffffffffffffffffffffffff16141515610a1757600080fd5b60001515600060019054906101000a900460ff161515148015610a4c5750600015156000809054906101000a900460ff161515145b1515610a5757600080fd5b6001600060016101000a81548160ff02191690831515021790555060016000806101000a81548160ff021916908315150217905550603c85024201600181905550670de0b6b3a7640000840260028190555082600560006101000a81548173ffffffffffffffffffffffffffffffffffffffff021916908373ffffffffffffffffffffffffffffffffffffffff1602179055508160068190555080600760006101000a81548173ffffffffffffffffffffffffffffffffffffffff021916908373ffffffffffffffffffffffffffffffffffffffff1602179055505050505050565b600760009054906101000a900473ffffffffffffffffffffffffffffffffffffffff1681565b6000809054906101000a900460ff1681565b60045481565b600560009054906101000a900473ffffffffffffffffffffffffffffffffffffffff1681565b600254815600a165627a7a723058206ce5819636967ffa874dce947a89ff0d62419ef1d4682fa2150ab1bf42391d7f0029",
  "source": "pragma solidity ^0.4.24;\n\ninterface fundcoin {\n  function transfer(address _to, uint256 value);\n}\n\ncontract Fundraise {\n\n  bool public fundraiserCommenced = false;\n  bool public fundraiserOpen = false;\n  uint256 public deadline;\n\n  uint256 public minimumTargetInWei;\n  bool public targetReached = false;\n\n  uint256 public currentRaisedAmountInWei = 0;\n\n  fundcoin public tokenToBeUsedAsReward;\n  uint256 public tokenPriceInWei;\n\n  address public fundraiserBeneficiary;\n  address public fundraiserOwner;\n\n  mapping(address => uint256) public balances;\n\n  //Constructor\n  constructor() public {\n    fundraiserOwner = msg.sender;\n  }\n\n  //Modifiers\n  modifier onlyOwner {\n    require(msg.sender == fundraiserOwner);\n    _;\n  }\n\n  modifier ifCampaignHasStarted() {\n    require(fundraiserCommenced == true);\n    _;\n  }\n\n  modifier ifCampaignHasConcluded() {\n    require(fundraiserOpen == false && fundraiserCommenced == true);\n    _;\n  }\n\n  modifier ifCampaignInProgress() {\n    require(fundraiserOpen == true && fundraiserCommenced == true);\n    _;\n  }\n\n  modifier ifCampaignStartedNull() {\n    require(fundraiserOpen == false && fundraiserCommenced == false);\n    _;\n  }\n\n\n  //Helpers\n  function launchCampaign(uint256 _timeOpenInMinutes, uint256 _minimumTargetEth, address _campaignToken, uint256 _tokenPriceEth, address _fundraiseBeneficiary) public onlyOwner ifCampaignStartedNull {\n    fundraiserOpen = true;\n    fundraiserCommenced = true;\n    deadline = now + (_timeOpenInMinutes * 1 minutes);\n    minimumTargetInWei = _minimumTargetEth * 1 ether;\n    tokenToBeUsedAsReward = fundcoin(_campaignToken);\n    tokenPriceInWei = _tokenPriceEth;\n    fundraiserBeneficiary = _fundraiseBeneficiary;\n  }\n\n  function checkCampaignStatus() public ifCampaignHasStarted {\n    if(now >= deadline) {\n      fundraiserOpen = false;\n    }\n\n    if(currentRaisedAmountInWei >= currentRaisedAmountInWei) {\n      targetReached = true;\n    }\n  }\n\n  function contributeToCampaign() public payable ifCampaignInProgress{\n    uint amount = msg.value;\n    balances[msg.sender] += amount;\n    currentRaisedAmountInWei += amount;\n    tokenToBeUsedAsReward.transfer(msg.sender, amount / tokenPriceInWei);\n  }\n\n  function withdraw() public payable ifCampaignHasConcluded {\n    if(targetReached == false) {\n      uint amount = balances[msg.sender];\n      balances[msg.sender] = 0;\n      if(msg.sender.send(amount)) {\n        tokenToBeUsedAsReward.transfer(fundraiserOwner, amount / tokenPriceInWei);\n      }\n    } else if (targetReached == true && fundraiserBeneficiary == msg.sender) {\n      if(fundraiserBeneficiary.send(currentRaisedAmountInWei)) {\n\n      } else {\n        targetReached = false;\n      }\n    }\n  }\n}",
  "sourcePath": "/Users/AnnMargaret/Desktop/ethICO/contracts/Fundraise.sol",
  "compiler": {
    "name": "solc",
    "version": "0.4.24+commit.e67f0147.Emscripten.clang"
  },
  "schemaVersion": "2.0.0",
  "updatedAt": "2018-06-20T22:07:34.963Z"
}