{
  "contractName": "Fund",
  "abi": [
    {
      "constant": true,
      "inputs": [],
      "name": "fundOwner",
      "outputs": [
        {
          "name": "",
          "type": "address"
        }
      ],
      "payable": false,
      "stateMutability": "view",
      "type": "function"
    },
    {
      "constant": true,
      "inputs": [],
      "name": "balanceInWei",
      "outputs": [
        {
          "name": "",
          "type": "uint256"
        }
      ],
      "payable": false,
      "stateMutability": "view",
      "type": "function"
    },
    {
      "inputs": [
        {
          "name": "_name",
          "type": "string"
        }
      ],
      "payable": false,
      "stateMutability": "nonpayable",
      "type": "constructor"
    },
    {
      "payable": true,
      "stateMutability": "payable",
      "type": "fallback"
    },
    {
      "constant": true,
      "inputs": [],
      "name": "fundName",
      "outputs": [
        {
          "name": "",
          "type": "string"
        }
      ],
      "payable": false,
      "stateMutability": "view",
      "type": "function"
    },
    {
      "constant": false,
      "inputs": [
        {
          "name": "_currentFundraise",
          "type": "address"
        }
      ],
      "name": "callWithdraw",
      "outputs": [],
      "payable": true,
      "stateMutability": "payable",
      "type": "function"
    },
    {
      "constant": false,
      "inputs": [],
      "name": "getBalance",
      "outputs": [
        {
          "name": "",
          "type": "uint256"
        }
      ],
      "payable": false,
      "stateMutability": "nonpayable",
      "type": "function"
    }
  ],
  "bytecode": "0x608060405234801561001057600080fd5b50604051610524380380610524833981018060405281019080805182019291905050508060019080519060200190610049929190610091565b5033600260006101000a81548173ffffffffffffffffffffffffffffffffffffffff021916908373ffffffffffffffffffffffffffffffffffffffff16021790555050610136565b828054600181600116156101000203166002900490600052602060002090601f016020900481019282601f106100d257805160ff1916838001178555610100565b82800160010185558215610100579182015b828111156100ff5782518255916020019190600101906100e4565b5b50905061010d9190610111565b5090565b61013391905b8082111561012f576000816000905550600101610117565b5090565b90565b6103df806101456000396000f30060806040526004361061006d576000357c0100000000000000000000000000000000000000000000000000000000900463ffffffff16806312065fe01461006f578063218fbdec1461009a578063735fb8e0146100d05780639ce1413b14610127578063e2d56060146101b7575b005b34801561007b57600080fd5b506100846101e2565b6040518082815260200191505060405180910390f35b6100ce600480360381019080803573ffffffffffffffffffffffffffffffffffffffff16906020019092919050505061020a565b005b3480156100dc57600080fd5b506100e56102e5565b604051808273ffffffffffffffffffffffffffffffffffffffff1673ffffffffffffffffffffffffffffffffffffffff16815260200191505060405180910390f35b34801561013357600080fd5b5061013c61030b565b6040518080602001828103825283818151815260200191508051906020019080838360005b8381101561017c578082015181840152602081019050610161565b50505050905090810190601f1680156101a95780820380516001836020036101000a031916815260200191505b509250505060405180910390f35b3480156101c357600080fd5b506101cc6103ad565b6040518082815260200191505060405180910390f35b60003073ffffffffffffffffffffffffffffffffffffffff1631600081905550600054905090565b600260009054906101000a900473ffffffffffffffffffffffffffffffffffffffff1673ffffffffffffffffffffffffffffffffffffffff163373ffffffffffffffffffffffffffffffffffffffff1614151561026657600080fd5b8073ffffffffffffffffffffffffffffffffffffffff16633ccfd60b6040518163ffffffff167c0100000000000000000000000000000000000000000000000000000000028152600401600060405180830381600087803b1580156102ca57600080fd5b505af11580156102de573d6000803e3d6000fd5b5050505050565b600260009054906101000a900473ffffffffffffffffffffffffffffffffffffffff1681565b606060018054600181600116156101000203166002900480601f0160208091040260200160405190810160405280929190818152602001828054600181600116156101000203166002900480156103a35780601f10610378576101008083540402835291602001916103a3565b820191906000526020600020905b81548152906001019060200180831161038657829003601f168201915b5050505050905090565b600054815600a165627a7a723058204a437fcb5ec41cf5938da1bde13d0a2f705011149e0f101f50463db3efdfed010029",
  "source": "pragma solidity ^0.4.24;\n\ninterface fundraise {\n  function withdraw();\n}\n\ncontract Fund {\n\n  uint256 public balanceInWei;\n  string public fundName;\n  address public fundOwner;\n\n  constructor(string _name) public {\n    fundName = _name;\n    fundOwner = msg.sender;\n  }\n\n  modifier onlyOwner {\n    require(msg.sender == fundOwner);\n    _;\n  }\n\n  function() public payable {\n\n  }\n\n  //Getters\n  function fundName() public constant returns (string) {\n    return fundName;\n  }\n\n\n  //Utility Functions\n  function callWithdraw(address _currentFundraise) onlyOwner payable {\n    fundraise(_currentFundraise).withdraw();\n  }\n\n  function getBalance() public returns (uint256) {\n    balanceInWei = address(this).balance;\n    return balanceInWei;\n  }\n}\n\n",
  "sourcePath": "/Users/AnnMargaret/Desktop/ethICO/contracts/Fund.sol",
  "compiler": {
    "name": "solc",
    "version": "0.4.24+commit.e67f0147.Emscripten.clang"
  },
  "schemaVersion": "2.0.0",
  "updatedAt": "2018-06-20T22:07:34.954Z"
}